{
  "_format": "hh-sol-artifact-1",
  "contractName": "SberAMM",
  "sourceName": "contracts/AMM.sol",
  "abi": [
    {
      "inputs": [],
      "stateMutability": "nonpayable",
      "type": "constructor"
    },
    {
      "inputs": [
        {
          "internalType": "uint256",
          "name": "x",
          "type": "uint256"
        },
        {
          "internalType": "uint256",
          "name": "y",
          "type": "uint256"
        }
      ],
      "name": "PRBMath_MulDiv18_Overflow",
      "type": "error"
    },
    {
      "inputs": [
        {
          "internalType": "uint256",
          "name": "x",
          "type": "uint256"
        },
        {
          "internalType": "uint256",
          "name": "y",
          "type": "uint256"
        },
        {
          "internalType": "uint256",
          "name": "denominator",
          "type": "uint256"
        }
      ],
      "name": "PRBMath_MulDiv_Overflow",
      "type": "error"
    },
    {
      "inputs": [
        {
          "internalType": "UD60x18",
          "name": "x",
          "type": "uint256"
        }
      ],
      "name": "PRBMath_UD60x18_Log_InputTooSmall",
      "type": "error"
    },
    {
      "inputs": [
        {
          "internalType": "UD60x18",
          "name": "x",
          "type": "uint256"
        }
      ],
      "name": "PRBMath_UD60x18_Sqrt_Overflow",
      "type": "error"
    },
    {
      "inputs": [],
      "name": "PIDs",
      "outputs": [
        {
          "internalType": "uint256",
          "name": "",
          "type": "uint256"
        }
      ],
      "stateMutability": "view",
      "type": "function"
    },
    {
      "inputs": [
        {
          "internalType": "address",
          "name": "",
          "type": "address"
        },
        {
          "internalType": "uint256",
          "name": "",
          "type": "uint256"
        }
      ],
      "name": "PoolShares",
      "outputs": [
        {
          "internalType": "uint256",
          "name": "",
          "type": "uint256"
        }
      ],
      "stateMutability": "view",
      "type": "function"
    },
    {
      "inputs": [
        {
          "internalType": "uint256",
          "name": "",
          "type": "uint256"
        }
      ],
      "name": "Pools",
      "outputs": [
        {
          "internalType": "address",
          "name": "token0",
          "type": "address"
        },
        {
          "internalType": "address",
          "name": "token1",
          "type": "address"
        },
        {
          "internalType": "uint256",
          "name": "amount0",
          "type": "uint256"
        },
        {
          "internalType": "uint256",
          "name": "amount1",
          "type": "uint256"
        },
        {
          "internalType": "uint256",
          "name": "totalShares",
          "type": "uint256"
        },
        {
          "internalType": "bool",
          "name": "isStable",
          "type": "bool"
        },
        {
          "internalType": "uint256",
          "name": "fee0",
          "type": "uint256"
        },
        {
          "internalType": "uint256",
          "name": "fee1",
          "type": "uint256"
        },
        {
          "internalType": "uint256",
          "name": "feeRate",
          "type": "uint256"
        }
      ],
      "stateMutability": "view",
      "type": "function"
    },
    {
      "inputs": [
        {
          "internalType": "address",
          "name": "token0",
          "type": "address"
        },
        {
          "internalType": "address",
          "name": "token1",
          "type": "address"
        },
        {
          "internalType": "uint256",
          "name": "_fee",
          "type": "uint256"
        },
        {
          "internalType": "bool",
          "name": "_isStable",
          "type": "bool"
        }
      ],
      "name": "createPair",
      "outputs": [
        {
          "internalType": "uint256",
          "name": "",
          "type": "uint256"
        }
      ],
      "stateMutability": "nonpayable",
      "type": "function"
    },
    {
      "inputs": [
        {
          "internalType": "uint256",
          "name": "PID",
          "type": "uint256"
        },
        {
          "internalType": "uint256",
          "name": "amount_token0",
          "type": "uint256"
        },
        {
          "internalType": "uint256",
          "name": "amount_token1",
          "type": "uint256"
        }
      ],
      "name": "deposit",
      "outputs": [],
      "stateMutability": "nonpayable",
      "type": "function"
    },
    {
      "inputs": [],
      "name": "dividendPayingERC20",
      "outputs": [
        {
          "internalType": "address",
          "name": "",
          "type": "address"
        }
      ],
      "stateMutability": "view",
      "type": "function"
    },
    {
      "inputs": [
        {
          "internalType": "uint256",
          "name": "PID",
          "type": "uint256"
        },
        {
          "internalType": "address",
          "name": "token0",
          "type": "address"
        }
      ],
      "name": "exchangeRate",
      "outputs": [
        {
          "internalType": "uint256",
          "name": "rate",
          "type": "uint256"
        }
      ],
      "stateMutability": "view",
      "type": "function"
    },
    {
      "inputs": [
        {
          "internalType": "address",
          "name": "",
          "type": "address"
        },
        {
          "internalType": "address",
          "name": "",
          "type": "address"
        },
        {
          "internalType": "uint256",
          "name": "",
          "type": "uint256"
        }
      ],
      "name": "getPool",
      "outputs": [
        {
          "internalType": "uint256",
          "name": "",
          "type": "uint256"
        }
      ],
      "stateMutability": "view",
      "type": "function"
    },
    {
      "inputs": [
        {
          "internalType": "uint256",
          "name": "_fee",
          "type": "uint256"
        }
      ],
      "name": "modifyFeeAmount",
      "outputs": [],
      "stateMutability": "nonpayable",
      "type": "function"
    },
    {
      "inputs": [
        {
          "internalType": "address",
          "name": "_dividendPayingERC20",
          "type": "address"
        }
      ],
      "name": "modifySplitterAddress",
      "outputs": [],
      "stateMutability": "nonpayable",
      "type": "function"
    },
    {
      "inputs": [],
      "name": "numberOfPools",
      "outputs": [
        {
          "internalType": "uint256",
          "name": "",
          "type": "uint256"
        }
      ],
      "stateMutability": "view",
      "type": "function"
    },
    {
      "inputs": [
        {
          "internalType": "bool",
          "name": "_isPaused",
          "type": "bool"
        }
      ],
      "name": "setIsPaused",
      "outputs": [],
      "stateMutability": "nonpayable",
      "type": "function"
    },
    {
      "inputs": [
        {
          "internalType": "uint256",
          "name": "PID",
          "type": "uint256"
        },
        {
          "internalType": "address",
          "name": "tokenIn",
          "type": "address"
        },
        {
          "internalType": "uint256",
          "name": "amount",
          "type": "uint256"
        }
      ],
      "name": "swap",
      "outputs": [
        {
          "internalType": "uint256",
          "name": "",
          "type": "uint256"
        }
      ],
      "stateMutability": "nonpayable",
      "type": "function"
    },
    {
      "inputs": [
        {
          "internalType": "uint256",
          "name": "PID",
          "type": "uint256"
        },
        {
          "internalType": "address",
          "name": "token0",
          "type": "address"
        }
      ],
      "name": "totalValueLocked",
      "outputs": [
        {
          "internalType": "uint256",
          "name": "tvl",
          "type": "uint256"
        }
      ],
      "stateMutability": "view",
      "type": "function"
    },
    {
      "inputs": [
        {
          "internalType": "uint256",
          "name": "PID",
          "type": "uint256"
        },
        {
          "internalType": "address",
          "name": "token",
          "type": "address"
        }
      ],
      "name": "viewEarnedFees",
      "outputs": [
        {
          "internalType": "uint256",
          "name": "",
          "type": "uint256"
        }
      ],
      "stateMutability": "view",
      "type": "function"
    },
    {
      "inputs": [
        {
          "internalType": "uint256",
          "name": "PID",
          "type": "uint256"
        }
      ],
      "name": "withdraw",
      "outputs": [
        {
          "internalType": "uint256",
          "name": "",
          "type": "uint256"
        },
        {
          "internalType": "uint256",
          "name": "",
          "type": "uint256"
        }
      ],
      "stateMutability": "nonpayable",
      "type": "function"
    },
    {
      "inputs": [
        {
          "internalType": "uint256",
          "name": "PID",
          "type": "uint256"
        },
        {
          "internalType": "address",
          "name": "token",
          "type": "address"
        }
      ],
      "name": "withdrawFees",
      "outputs": [
        {
          "internalType": "uint256",
          "name": "",
          "type": "uint256"
        }
      ],
      "stateMutability": "nonpayable",
      "type": "function"
    }
  ],
  "bytecode": "0x608060405234801561001057600080fd5b50600080546001600160a01b0319163317905561216b806100326000396000f3fe608060405234801561001057600080fd5b506004361061011a5760003560e01c8063a537cb08116100b2578063b2e916d611610081578063c2b8290911610066578063c2b829091461031c578063cd8a8bfc14610347578063dd2cc3f31461035a57600080fd5b8063b2e916d6146102f6578063b39ac8291461030957600080fd5b8063a537cb0814610274578063acf6cc1a14610287578063adb02ab6146102b8578063b2782f8b146102cb57600080fd5b80632e1a7d4d116100ee5780632e1a7d4d14610176578063432643491461019e5780636f682a53146101b157806373dfccca146101b957600080fd5b8062aeef8a1461011f57806306b2b57c14610134578063191cb39214610147578063240976bf14610163575b600080fd5b61013261012d366004611e80565b61036d565b005b610132610142366004611eac565b6104c9565b61015060055481565b6040519081526020015b60405180910390f35b610132610171366004611ed6565b610528565b610189610184366004611eac565b6105cc565b6040805192835260208301919091520161015a565b6101506101ac366004611f0f565b610972565b600554610150565b6102236101c7366004611eac565b60046020819052600091825260409091208054600182015460028301546003840154948401546005850154600686015460078701546008909701546001600160a01b039687169895909616969395929360ff9092169290919089565b604080516001600160a01b039a8b1681529990981660208a01529688019590955260608701939093526080860191909152151560a085015260c084015260e08301526101008201526101200161015a565b610150610282366004611f44565b610acf565b610150610295366004611f70565b600360209081526000938452604080852082529284528284209052825290205481565b6101326102c6366004611f9c565b610c3e565b6101506102d9366004611fb7565b600760209081526000928352604080842090915290825290205481565b610150610304366004611fe1565b610cd2565b610150610317366004611f44565b610f4a565b60025461032f906001600160a01b031681565b6040516001600160a01b03909116815260200161015a565b610150610355366004611f44565b61104a565b610150610368366004611f44565b611118565b826005548111156103ba5760405162461bcd60e51b815260206004820152601260248201527114125108191bd95cc81b9bdd08195e1a5cdd60721b60448201526064015b60405180910390fd5b600084815260046020526040902080546001909101546001600160a01b0391821691166103e98233308861128e565b6103fe6001600160a01b03821633308761128e565b600061041a61041761041287895b90611345565b61135b565b90565b3360009081526007602090815260408083208b845290915281208054929350839290919061044990849061205f565b90915550506000878152600460208190526040822001805483929061046f90849061205f565b90915550506000878152600460205260408120600201805488929061049590849061205f565b9091555050600087815260046020526040812060030180548792906104bb90849061205f565b909155505050505050505050565b6000546001600160a01b031633146105235760405162461bcd60e51b815260206004820152600c60248201527f6e6f74206465706c6f796572000000000000000000000000000000000000000060448201526064016103b1565b600155565b6000546001600160a01b031633146105825760405162461bcd60e51b815260206004820152600c60248201527f6e6f74206465706c6f796572000000000000000000000000000000000000000060448201526064016103b1565b6000805491151574010000000000000000000000000000000000000000027fffffffffffffffffffffff00ffffffffffffffffffffffffffffffffffffffff909216919091179055565b600080826005548111156106175760405162461bcd60e51b815260206004820152601260248201527114125108191bd95cc81b9bdd08195e1a5cdd60721b60448201526064016103b1565b3360009081526007602090815260408083208784529091529020548061067f5760405162461bcd60e51b815260206004820152601a60248201527f4e6f20706f6f6c2073686172657320746f20776974686472617700000000000060448201526064016103b1565b6000858152600460208190526040822060028101549101546106ab916104179161040c90865b906113ca565b60008781526004602081905260408220600381015491015492935090916106da916104179161040c90876106a5565b6000888152600460205260409020600201549091508211156107635760405162461bcd60e51b8152602060048201526024808201527f496e73756666696369656e7420706f6f6c2062616c616e636520666f7220746f60448201527f6b656e300000000000000000000000000000000000000000000000000000000060648201526084016103b1565b6000878152600460205260409020600301548111156107e95760405162461bcd60e51b8152602060048201526024808201527f496e73756666696369656e7420706f6f6c2062616c616e636520666f7220746f60448201527f6b656e310000000000000000000000000000000000000000000000000000000060648201526084016103b1565b6000610800610417662386f26fc100005b8561040c565b90506000610817610417662386f26fc100006107fa565b905083600460008b8152602001908152602001600020600201600082825461083f9190612072565b909155505060008981526004602052604081206003018054859290610865908490612072565b9091555061087590508285612072565b93506108818184612072565b925084600460008b815260200190815260200160002060040160008282546108a99190612072565b90915550503360008181526007602090815260408083208d8452825280832083905560049091529020546108e9916001600160a01b0390911690866113e2565b60008981526004602052604090206001015461090f906001600160a01b031633856113e2565b60025460008a815260046020526040902054610938916001600160a01b039182169116846113e2565b60025460008a815260046020526040902060010154610964916001600160a01b039182169116836113e2565b509195509350505050915091565b6000836005548111156109bc5760405162461bcd60e51b815260206004820152601260248201527114125108191bd95cc81b9bdd08195e1a5cdd60721b60448201526064016103b1565b6040517f23b872dd000000000000000000000000000000000000000000000000000000008152336004820152306024820152604481018490526001600160a01b038516906323b872dd906064016020604051808303816000875af1158015610a28573d6000803e3d6000fd5b505050506040513d601f19601f82011682018060405250810190610a4c9190612085565b610a5557600080fd5b6000610a618686611430565b60008781526004602052604081206008015491925090610a85906104179087611345565b90506000610a938287612072565b90506000610aa2898984611486565b9050610ab86001600160a01b03851633836113e2565b610ac38989856116e5565b98975050505050505050565b600082600554811115610b195760405162461bcd60e51b815260206004820152601260248201527114125108191bd95cc81b9bdd08195e1a5cdd60721b60448201526064016103b1565b600084815260046020526040812080549091906001600160a01b03868116911614610b48578160070154610b4e565b81600601545b3360009081526007602090815260408083208a845290915290205490915080610bb95760405162461bcd60e51b815260206004820152601c60248201527f4e6f2073686172657320666f756e6420666f722074686520757365720000000060448201526064016103b1565b60008781526006602090815260408083203384528252808320815180830190925280548252600101549181019190915284549091906001600160a01b03898116911614610c0a578160200151610c0d565b81515b90506000610c30610417610c22886004015490565b6106a58761040c8a886117a9565b9a9950505050505050505050565b6000546001600160a01b03163314610c985760405162461bcd60e51b815260206004820152600c60248201527f6e6f74206465706c6f796572000000000000000000000000000000000000000060448201526064016103b1565b600280547fffffffffffffffffffffffff0000000000000000000000000000000000000000166001600160a01b0392909216919091179055565b6000836001600160a01b0316856001600160a01b031603610d355760405162461bcd60e51b815260206004820152601760248201527f74776f206964656e746963616c2061646472657373657300000000000000000060448201526064016103b1565b6001600160a01b038516610d8b5760405162461bcd60e51b815260206004820152601360248201527f5a65726f204164647265737320746f6b656e410000000000000000000000000060448201526064016103b1565b6001600160a01b038416610de15760405162461bcd60e51b815260206004820152601360248201527f5a65726f204164647265737320746f6b656e420000000000000000000000000060448201526064016103b1565b6001600160a01b03808616600090815260036020908152604080832093881683529281528282208683529052205415610e5c5760405162461bcd60e51b815260206004820152601360248201527f5061697220616c7265616479206578697374730000000000000000000000000060448201526064016103b1565b60058054906000610e6c836120a2565b909155505060058054600081815260046020908152604080832080547fffffffffffffffffffffffff00000000000000000000000000000000000000009081166001600160a01b038d81169182178455600184018054909316908d16908117909255600883018b905591870180547fffffffffffffffffffffffffffffffffffffffffffffffffffffffffffffff00168a15151790559554818552600380855283862088875285528386208b87528552838620829055968552958352818420908452825280832088845290915290209190915590505b949350505050565b600082600554811115610f945760405162461bcd60e51b815260206004820152601260248201527114125108191bd95cc81b9bdd08195e1a5cdd60721b60448201526064016103b1565b6000848152600460205260409020546001600160a01b0390811690841681900361100357600085815260046020526040812060028101546003909101549091610fe1610417835b856106a5565b9050610ff9610417610ff38385611345565b856117b8565b9550505050611042565b60008581526004602052604081206003810154600290910154909161102a61041783610fdb565b905061103c610417610ff3848461040c565b95505050505b505092915050565b6000826005548111156110945760405162461bcd60e51b815260206004820152601260248201527114125108191bd95cc81b9bdd08195e1a5cdd60721b60448201526064016103b1565b6000848152600460205260409020546001600160a01b039081169084168190036110e857600085815260046020526040902060028101546003909101546110df610417825b846106a5565b94505050611042565b6000858152600460205260409020600381015460029091015461110d610417826110d9565b979650505050505050565b6000826005548111156111625760405162461bcd60e51b815260206004820152601260248201527114125108191bd95cc81b9bdd08195e1a5cdd60721b60448201526064016103b1565b600084815260046020526040812080549091906001600160a01b03868116911614611191578160070154611197565b81600601545b3360009081526007602090815260408083208a8452909152902054909150806112025760405162461bcd60e51b815260206004820152601c60248201527f4e6f2073686172657320666f756e6420666f722074686520757365720000000060448201526064016103b1565b60008781526006602090815260408083203384528252808320815180830190925280548252600101549181019190915284549091906001600160a01b03898116911614611253578160200151611256565b81515b9050600061126b610417610c22886004015490565b90506112816001600160a01b038a1633836113e2565b9998505050505050505050565b6040516001600160a01b038085166024830152831660448201526064810182905261133f9085907f23b872dd00000000000000000000000000000000000000000000000000000000906084015b60408051601f198184030181529190526020810180517bffffffffffffffffffffffffffffffffffffffffffffffffffffffff167fffffffff00000000000000000000000000000000000000000000000000000000909316929092179091526117c7565b50505050565b600061135461041784846118af565b9392505050565b6000817812725dd1d243aba0e75fe645cc4873f9e65afe688c928e1f218111156113b4576040517fedc236ad000000000000000000000000000000000000000000000000000000008152600481018490526024016103b1565b611354610417670de0b6b3a76400008302611998565b600061135461041784670de0b6b3a764000085611b1d565b6040516001600160a01b03831660248201526044810182905261142b9084907fa9059cbb00000000000000000000000000000000000000000000000000000000906064016112db565b505050565b600082815260046020526040812080546001909101546001600160a01b0391821691908116908416829003611463578092505b806001600160a01b0316846001600160a01b031603611042575090505b92915050565b600083815260046020526040812060050154819060ff16156115ef576000858152600460205260409020546001600160a01b03808616911603611562576115096104176115046114e78660008a8152600460205260409020600201546117b8565b6000898152600460205260409020600301546106a5905b8861040c565b611c0a565b905082600460008781526020019081526020016000206002016000828254611531919061205f565b909155505060008581526004602052604081206003018054839290611557908490612072565b90915550610f429050565b6115a16104176115046115868660008a8152600460205260409020600301546117b8565b6000898152600460205260409020600201546106a5906114fe565b9050826004600087815260200190815260200160002060030160008282546115c9919061205f565b909155505060008581526004602052604081206002018054839290611557908490612072565b6000858152600460205260409020546001600160a01b0380861691160361164e57611509610417611631856000898152600460205260409020600201546117b8565b6000888152600460205260409020600301546106a5905b8761040c565b61168a61041761166f856000898152600460205260409020600301546117b8565b6000888152600460205260409020600201546106a590611648565b9050826004600087815260200190815260200160002060030160008282546116b2919061205f565b9091555050600085815260046020526040812060020180548392906116d8908490612072565b9091555050949350505050565b6000838152600460205260409020546001600160a01b03808416911603611758576000838152600460205260408120600201805483929061172790849061205f565b90915550506000838152600460205260408120600601805483929061174d90849061205f565b9091555061142b9050565b6000838152600460205260408120600301805483929061177990849061205f565b90915550506000838152600460205260408120600701805483929061179f90849061205f565b9091555050505050565b60006113546104178385612072565b6000611354610417838561205f565b600061181c826040518060400160405280602081526020017f5361666545524332303a206c6f772d6c6576656c2063616c6c206661696c6564815250856001600160a01b0316611d6d9092919063ffffffff16565b905080516000148061183d57508080602001905181019061183d9190612085565b61142b5760405162461bcd60e51b815260206004820152602a60248201527f5361666545524332303a204552433230206f7065726174696f6e20646964206e60448201527f6f7420737563636565640000000000000000000000000000000000000000000060648201526084016103b1565b60008080600019848609848602925082811083820303915050806000036118e35750670de0b6b3a764000090049050611480565b670de0b6b3a7640000811061192e576040517f5173648d00000000000000000000000000000000000000000000000000000000815260048101869052602481018590526044016103b1565b6000670de0b6b3a7640000858709620400008185030493109091037d40000000000000000000000000000000000000000000000000000000000002919091177faccb18165bd6fe31ae1cf318dc5b51eee0e1ba569b88cd74c1773b91fac106690291505092915050565b6000816000036119aa57506000919050565b5060018170010000000000000000000000000000000081106119d15760409190911b9060801c5b6801000000000000000081106119ec5760209190911b9060401c5b6401000000008110611a035760109190911b9060201c5b620100008110611a185760089190911b9060101c5b6101008110611a2c5760049190911b9060081c5b60108110611a3f5760029190911b9060041c5b60048110611a4f57600182901b91505b6001828481611a6057611a606120bc565b048301901c91506001828481611a7857611a786120bc565b048301901c91506001828481611a9057611a906120bc565b048301901c91506001828481611aa857611aa86120bc565b048301901c91506001828481611ac057611ac06120bc565b048301901c91506001828481611ad857611ad86120bc565b048301901c91506001828481611af057611af06120bc565b048301901c91506000828481611b0857611b086120bc565b049050808310611b16578092505b5050919050565b6000808060001985870985870292508281108382030391505080600003611b5757838281611b4d57611b4d6120bc565b0492505050611354565b838110611ba1576040517f63a057780000000000000000000000000000000000000000000000000000000081526004810187905260248101869052604481018590526064016103b1565b60008486880960026001871981018816978890046003810283188082028403028082028403028082028403028082028403028082028403029081029092039091026000889003889004909101858311909403939093029303949094049190911702949350505050565b600081670de0b6b3a7640000811015611c52576040517f36d32ef0000000000000000000000000000000000000000000000000000000008152600481018490526024016103b1565b6000611cde670de0b6b3a7640000830460016fffffffffffffffffffffffffffffffff821160071b91821c67ffffffffffffffff811160061b90811c63ffffffff811160051b90811c61ffff811160041b90811c60ff8111600390811b91821c600f811160021b90811c918211871b91821c969096119490961792909217171791909117919091171790565b9050670de0b6b3a7640000810282821c7ffffffffffffffffffffffffffffffffffffffffffffffffff21f494c589c00008101611d1e5750949350505050565b671bc16d674ec800006706f05b59d3b200005b8015611d6157670de0b6b3a7640000838002049250818310611d59579283019260019290921c915b60011c611d31565b50919695505050505050565b6060610f42848460008585600080866001600160a01b03168587604051611d94919061210f565b60006040518083038185875af1925050503d8060008114611dd1576040519150601f19603f3d011682016040523d82523d6000602084013e611dd6565b606091505b509150915061110d8783838760608315611e51578251600003611e4a576001600160a01b0385163b611e4a5760405162461bcd60e51b815260206004820152601d60248201527f416464726573733a2063616c6c20746f206e6f6e2d636f6e747261637400000060448201526064016103b1565b5081610f42565b610f428383815115611e665781518083602001fd5b8060405162461bcd60e51b81526004016103b1919061212b565b600080600060608486031215611e9557600080fd5b505081359360208301359350604090920135919050565b600060208284031215611ebe57600080fd5b5035919050565b8015158114611ed357600080fd5b50565b600060208284031215611ee857600080fd5b813561135481611ec5565b80356001600160a01b0381168114611f0a57600080fd5b919050565b600080600060608486031215611f2457600080fd5b83359250611f3460208501611ef3565b9150604084013590509250925092565b60008060408385031215611f5757600080fd5b82359150611f6760208401611ef3565b90509250929050565b600080600060608486031215611f8557600080fd5b611f8e84611ef3565b9250611f3460208501611ef3565b600060208284031215611fae57600080fd5b61135482611ef3565b60008060408385031215611fca57600080fd5b611fd383611ef3565b946020939093013593505050565b60008060008060808587031215611ff757600080fd5b61200085611ef3565b935061200e60208601611ef3565b925060408501359150606085013561202581611ec5565b939692955090935050565b7f4e487b7100000000000000000000000000000000000000000000000000000000600052601160045260246000fd5b8082018082111561148057611480612030565b8181038181111561148057611480612030565b60006020828403121561209757600080fd5b815161135481611ec5565b600060001982036120b5576120b5612030565b5060010190565b7f4e487b7100000000000000000000000000000000000000000000000000000000600052601260045260246000fd5b60005b838110156121065781810151838201526020016120ee565b50506000910152565b600082516121218184602087016120eb565b9190910192915050565b602081526000825180602084015261214a8160408501602087016120eb565b601f01601f1916919091016040019291505056fea164736f6c6343000813000a",
  "linkReferences": {},
  "deployedLinkReferences": {}
}